:020000040800F2
:104000009834002089410008F55D0008B159000886
:10401000095C00087B450008496A000800000000B0
:10402000000000000000000000000000096400081B
:10403000A1550008000000007D5F00080967000826
:10404000A3410008A3410008A3410008A3410008C0
:10405000A3410008A3410008A3410008A3410008B0
:10406000A3410008A3410008A3410008A3410008A0
:10407000A3410008A3410008A3410008A341000890
:10408000A3410008A3410008A3410008E568000817
:1040900079690008A3410008A3410008A341000872
:1040A000A3410008A3410008A3410008A341000860
:1040B000A3410008A3410008A3410008A341000850
:1040C000A3410008A3410008A3410008A341000840
:1040D000A3410008A3410008A3410008E3680008C9
:1040E000A3410008A3410008A341000800F002F822
:1040F00000F03AF80AA090E8000C82448344AAF148
:104100000107DA4501D100F02FF8AFF2090EBAE845
:104110000F0013F0010F18BFFB1A43F001031847FB
:10412000E43A0000043B0000103A24BF78C878C18C
:10413000FAD8520724BF30C830C144BF04680C60AD
:10414000704700000023002400250026103A28BFF5
:1041500078C1FBD8520728BF30C148BF0B607047F9
:104160001FB51FBD10B510BD00F08AF81146FFF74E
:10417000F7FF02F081FC00F0A8F803B4FFF7F2FFAC
:1041800003BC00F0AFF80000094880470948004729
:10419000FEE7FEE7FEE7FEE7FEE7FEE7FEE7FEE7F7
:1041A000FEE7FEE704480549054A064B7047000054
:1041B00041680008ED40000898280020983400204D
:1041C000982C0020982C002010B5203AC0F00B80CD
:1041D000B1E81850203AA0E81850B1E81850A0E80B
:1041E0001850BFF4F5AF5FEA027C24BFB1E8185065
:1041F000A0E8185044BF18C918C0BDE810405FEAD5
:10420000827C24BF51F8043B40F8043B08BF704750
:10421000D20728BF31F8023B48BF11F8012B28BF55
:1042200020F8023B48BF00F8012B70474FF0000216
:1042300000B5134694469646203922BFA0E80C509C
:10424000A0E80C50B1F12001BFF4F7AF090728BF77
:10425000A0E80C5048BF0CC05DF804EB890028BFF3
:1042600040F8042B08BF704748BF20F8022B11F01C
:10427000804F18BF00F8012B704770477047704798
:10428000754600F02BF8AE4605006946534620F00F
:104290000700854618B020B5FFF784FFBDE8204031
:1042A0004FF000064FF000074FF000084FF0000BF2
:1042B00021F00701AC46ACE8C009ACE8C009ACE8A5
:1042C000C009ACE8C0098D46704710B50446AFF38D
:1042D00000802046BDE81040FFF74FBF0048704700
:1042E0003428002001491820ABBEFEE7260002005A
:1042F000704721B1826842F00102826003E0826867
:1043000022F001028260704700B587B0244800F0B7
:104310004BF80121082001F05FFE0120ADF81800E4
:104320008DF81A0000208DF81B0006A91D4801F029
:104330000EFA012140F2012001F04EFE4FF4404000
:1043400001F01EFE002001908DF808008DF8090094
:104350004FF4602003900020049001208DF8140099
:1043600001A90F4800F070F801210D48FFF7C1FFC7
:104370000B4800F0EDF800BF094800F05AF800289B
:10438000FAD1074800F0F4F800BF054800F03AF809
:104390000028FAD10121024800F0DFF807B000BD83
:1043A00000240140000C014010B50446124884422C
:1043B00008D10121401501F01FFE0021601501F018
:1043C0001BFE17E00D48844208D10121001501F0C1
:1043D00013FE0021201501F00FFE0BE00848844277
:1043E00008D10121C80301F007FE00214FF400406D
:1043F00001F002FE10BD0000002401400028014031
:10440000003C0140014600208A6802F004020AB123
:10441000012000E0002070470146C86C80B2704760
:104420000246002013680B400BB1012000E0002081
:104430007047014600208A6802F008020AB1012094
:1044400000E000207047000030B502460020002345
:1044500050680F4C20400D790C6844EA0524204335
:10446000506090680B4C2040D1E902542C434D79A8
:1044700044EA450420439060D06A20F470000C7C2C
:10448000641EE4B2234340EA0350D06230BD000012
:10449000FFFEF0FFFDF7F1FFF0B504460D460020EA
:1044A0000021092D11DDE068A5F10A0606EB46079B
:1044B000072606FA07F18843A5F10A0606EB460629
:1044C00003FA06F10843E0600CE0206905EB4507BC
:1044D000072606FA07F1884305EB450603FA06F1BD
:1044E00008432061072A0FDA606B561E06EB860729
:1044F0001F2606FA07F18843561E06EB860605FAC4
:1045000006F10843606322E00D2A0FDA206BD61F04
:1045100006EB86071F2606FA07F18843D61F06EB2F
:10452000860605FA06F10843206310E0E06AA2F16E
:104530000D0606EB86071F2606FA07F18843A2F14F
:104540000D0606EB860605FA06F10843E062F0BDAB
:10455000816841F008018160704721B1826842F4AE
:10456000A002826003E0826822F4A00282607047A9
:10457000816841F004018160704700BFFEE70000E0
:1045800010B504460B48844209D10121480601F0C8
:1045900013FD00214FF0007001F00EFD08E0012135
:1045A000880601F009FD00214FF0806001F004FD54
:1045B00010BD00000064004010B50021837A012284
:1045C00002FA03F13D4A126842F001023B4B1A60C5
:1045D0003A4A1C3212688A43384B1C331A60027BF9
:1045E000CAB9364A0C3212688A43344B0C331A600B
:1045F0004288C38842EA0343304A4032847A42F810
:1046000034300288838842EA03432C4A4032847A59
:1046100002EBC4025360027B012A19D1274A0C32F3
:1046200012680A43254B0C331A604288038842EA19
:104630000343224A4032847A42F83430C288838865
:1046400042EA03431D4A4032847A02EBC4025360BB
:10465000C27A3AB9194A121D12688A43174B1B1DB8
:104660001A6006E0154A121D12680A43134B1B1DFF
:104670001A60028932B9114A143212688A430F4B08
:1046800014331A600289012A06D10C4A14321268C6
:104690000A430A4B14331A60427B012A06D1074AA7
:1046A0001C3212680A43054B1C331A60034A126815
:1046B00022F00102014B1A6010BD000000660040AC
:1046C0001AB143690B43436102E043698B43436181
:1046D000704730B5024600200023146824F002041D
:1046E0001460146844F00104146000E05B1C54681A
:1046F00004F001041CB94FF6FF74A342F6D15468CC
:1047000004F001040CB900206CE08C79012C04D178
:10471000146844F08004146003E0146824F08004FA
:104720001460CC79012C04D1146844F04004146066
:1047300003E0146824F0400414600C7A012C04D1C6
:10474000146844F02004146003E0146824F020048A
:1047500014604C7A012C04D1146844F010041460E5
:1047600003E0146824F0100414608C7A012C04D146
:10477000146844F00804146003E0146824F008048A
:104780001460CC7A012C04D1146844F00404146041
:1047900003E0146824F0040414608C78A407CD7836
:1047A00044EA05640D7944EA05444D7944EA055428
:1047B0000D886D1E2C43D461146824F0010414602C
:1047C000002300E05B1C546804F001041CB14FF6A8
:1047D000FF74A342F6D1546804F001040CB1002028
:1047E00000E0012030BD10B500F5D87303EB0113D4
:1047F0001B6803F004031372137A53B900F5D873DE
:1048000003EB01131B6840F2FF7404EA5353136077
:1048100009E000F5D87303EB01131B686FF06044E7
:1048200004EAD303536000F5D87303EB01131B684C
:1048300003F00203537200F5D87303EB01135B68B6
:1048400003F00F03937200F5D87303EB01135B6859
:104850001B0AD37400F5D87303EB01139B68D37262
:1048600000F5D87303EB01139B681C0A147300F561
:10487000D87303EB01139B681C0C547300F5D873B9
:1048800003EB01139B681B0E937300F5D87303EBC6
:104890000113DB68D37300F5D87303EB0113DB68F6
:1048A0001C0A147400F5D87303EB0113DB681C0CAD
:1048B000547400F5D87303EB0113DB681B0E93747B
:1048C00021B9C36843F02003C36003E0036943F0E8
:1048D0002003036110BD00218171C1710172417219
:1048E0008172C1728170C170032101710221417115
:1048F00001210180704710B502460020936803F043
:104900008063B3F1806F00D110E0936803F000631F
:10491000B3F1006F01D1012008E0936803F08053E8
:10492000B3F1805F01D1022000E00420042874D09C
:1049300002F5C07303EB00131B6803F0010402F5DA
:10494000C07303EB00131C600B7A7BB94B7A0C88A5
:1049500043EA445302F5C07404EB00142468234373
:1049600002F5C07404EB0014236010E00B7A4C686D
:1049700043EAC4034C7A234302F5C07404EB0014E9
:104980002468234302F5C07404EB001423608B7A7F
:1049900003F00F038B7202F5C07303EB00135B6827
:1049A00023F00F0402F5C07303EB00135C6002F503
:1049B000C07303EB00135B688C7A234302F5C07469
:1049C00004EB001463608B7B1C064B7B44EA0344BE
:1049D0000B7B44EA0323CC7A234302F5C07404EB37
:1049E0000014A3608B7C1C064B7C44EA03440B7CC4
:1049F00044EA0323CC7B234302F5C07404EB001488
:104A0000E36002F5C07303EB00131B6843F001047D
:104A100002F5C07303EB00131C6010BDF0B5034634
:104A20000C4600200025002600212FE05E5C671E5A
:104A30008F4216DD4F1CDD5D02110707380E82EA3A
:104A40002517DFF850C01CF80770784002110707DF
:104A5000380E05F00F0757401CF8077078404F1CC0
:104A6000F9B202110707380E82EA2617DFF824C0D0
:104A70001CF80770784002110707380E06F00F0780
:104A800057401CF8077078404F1CF9B2A142CDDBAB
:104A9000F0BD0000380000202DE9FE4305464FF030
:104AA00000085A480088002879D05948594909888F
:104AB00000EB0110067B56485649098800EB0110AF
:104AC000001D711E475C52485249098800EB0110D5
:104AD00000788DF800004E484E49098800EB01101F
:104AE0000088000A8DF8010049484A49098800EB0E
:104AF00001100068000C8DF80200454845490988FE
:104B000000EB01100068000E8DF803004048414999
:104B1000098800EB0110007B8DF804003C483D49FA
:104B2000098800EB011000798DF8050038483949F3
:104B3000098800EB011040798DF8060034483549AA
:104B4000098800EB011080798DF807003048314961
:104B5000098800EB0110C0798DF80800092168462A
:104B6000FFF75CFFB84201D0BDE8FE8300240CE0F3
:104B700027482849098800EB0110001D005DE1006D
:104B8000884040EA0808601CC4B2B442F0DB012D42
:104B900006D1404602F0B8FB814600F0EDFF33E05D
:104BA000022D31D11A481B49098800EB0110007908
:104BB0001949086016481749098800EB0110407927
:104BC0001549096841EA0020134908601048114955
:104BD000098800EB011080790F49096841EA00401B
:104BE0000D4908600A480B49098800EB0110C0799B
:104BF0000949096841EA006007490860404602F037
:104C000083FB814600F0E8FF00BFADE72C000020E9
:104C1000DC000020280000206000002000B587B0E4
:104C20000121052001F0D8F94FF40060ADF818001B
:104C300048208DF81B0006A9364800F088FD4FF487
:104C40008050ADF8180018208DF81B0003208DF857
:104C50001A0006A92F4800F07AFD00214FF4EA104F
:104C600000F000FE00214FF4EB1000F0FBFD0121ED
:104C7000480601F091F9C821274801F0FDFB022008
:104C80008DF8120000208DF8130001208DF814001B
:104C90000020ADF808000C20ADF80A000020ADF8A7
:104CA0000C003C20ADF80E000020ADF810000120F3
:104CB0008DF8150002A8FFF77FFC14208DF8040082
:104CC00000208DF8050002208DF8060001208DF8E7
:104CD000070001A801F090F813208DF804000020CF
:104CE0008DF8050002208DF8060001208DF80700E0
:104CF00001A801F081F8002201210748FFF7E0FC3C
:104D0000012202210448FFF7DBFC034800F0AAFA65
:104D100007B000BD000801400064004000200D49BC
:104D200008600D4908600D4908600D4908600120C0
:104D30000C49086000200C4908600C4908600C49C7
:104D400008800C4908800C4908800C4908700C49FF
:104D500008707047880000208C0000209000002020
:104D60009400002098000020A0000020AC0000204B
:104D7000A4000020A6000020A8000020AA00002017
:104D8000AB0000200146002205E0002300E05B1C90
:104D90000A2BFCD3521C8A42F7D301207047000033
:104DA000F8B504460025207800F007062068C0F317
:104DB0009310FE4908602078C0F3C20001280DD08E
:104DC00008460068012809D008460068F8490968C3
:104DD000401A012802D901200090F8BDF34800686C
:104DE00000B3F2480068F2490968884205D1F148E9
:104DF0000078401CEF49087014E0EE480078012864
:104E00000DD1EB480068012809D1E8480068202846
:104E100005D1E8480078401CE649087002E001200E
:104E2000E4490870E1480068E1490860012E7DD13D
:104E30002078C0F3C200012879D1DC48006801283D
:104E400040D1DC48007801283CD12179607941EAE1
:104E50000021A07941EA0041E07941EA0060D649A9
:104E60000860D649D448006802F0DCFA28B1D44979
:104E7000D148006802F0B0FA18B90020CE490860A5
:104E8000ABE771B6022000F037FC00F041FCCB48E4
:104E9000056804E0284602F095FA05F58065C748E4
:104EA0000068C74909680844A842F3D861B60020E1
:104EB000C34908600120BF49087020200090C14903
:104EC00000980860B948006802280FD1217A607AFA
:104ED00041EA0020BC490860A07A0104E07A41EA76
:104EE0000060B94909680843B7490860AF480068DD
:104EF000042825D8AF480078012821D1AB480068A4
:104F0000042801D1A949086071B6022000F0F4FB21
:104F100000F0FEFBA5480068401EA849096801EBA7
:104F2000C005AA4885420AD3A94801E02CE02CE03C
:104F3000854204D2227B2946201D02F0A6FA61B6E2
:104F40009A4800689F49096888421DD14FF48070D3
:104F50009B4908600120954908600846006894490B
:104F600008609948007800F0070030B19648006862
:104F7000012101EBD000009003E093480068C008D5
:104F8000009090490098086059E18848006840B353
:104F90008C48006828B3854800688A4909688842B7
:104FA0001FD282480068401EC5008448006800F592
:104FB0008070054485488542E6D385488542E3D222
:104FC0007C4800780128DFD171B6022000F094FB04
:104FD00000F09EFB227B2946201D02F056FA61B6A6
:104FE0002DE17248006840B17648006828B16F48EA
:104FF000006874490968884200D0EEE66B48006892
:10500000401EC5006D48006800F5807005446F487B
:10501000854212D36E4885420FD266480078012837
:105020000BD171B6022000F067FB00F071FB227B10
:105030002946201D02F029FA61B64FF47A70FFF775
:10504000A1FE0020634908805C48006800F5807577
:105050002FE056480068401E5849096801F58071E4
:1050600001EBC000217B0844401BB0F5003F08D392
:10507000584A4FF40031284602F06CF9554908802F
:1050800011E04A480068401E4C4A126802F58072DE
:1050900002EBC000227B1044411B4E4A284602F01E
:1050A00059F94C4908804FF47A70FFF76BFE05F50B
:1050B00000353E480068401E4049096801F580718E
:1050C00001EBC000217B0844A842C2D8002042491D
:1050D00008800222394801681C313F4802F0C8F9B3
:1050E0003C4800883C490988884279D100203949E8
:1050F00008800A46FC213148006802F02BF9354946
:1051000008800846008800902C48006800F1FC05E3
:105110002E48854216D32E48854213D22548007862
:1051200001280FD171B6022000F0E6FA00F0F0FA83
:10513000042222480168FC31684602F0A6F900F01A
:105140007BFA61B61C4800682449884277D171B661
:10515000022000F0D1FA00F0DBFA1D4802F032F92B
:1051600004221B49144802F090F9042213480168F4
:105170001831684602F07CF904221549091D684679
:1051800002F083F901200090114D08351048854246
:1051900008D30F481C30854204D2042229466846B1
:1051A00002F073F901200090094D1AE094000020EC
:1051B000980000209C000020AC0000208800002007
:1051C0008C00002090000020A000002000180108A2
:1051D00000F00108B0000020B2000020010A100019
:1051E0001CE00C351748854208D316481C30854210
:1051F00004D204222946684602F047F900F01CFA5E
:1052000061B64021104800F082FB4FF47A70FFF73E
:10521000B9FD4FF0006002F08BF910E071B600F0BC
:105220000BFA61B60020094908600949086009497C
:10523000086009490860094908600949086000BF19
:10524000CBE5000000F0010800100140AC00002098
:10525000A000002094000020900000208C0000207E
:10526000880000204FF00041C0F880114FF4C27157
:10527000095821F00F024FF4C2710A500022091D93
:105280000A50091D0A50D0F8801141F00101C0F800
:1052900080117047F0B589B005460F4616461421B7
:1052A00004A8FEF7C3FF009820F0C05000900098BB
:1052B00020F080600090009820F00070009000982E
:1052C00020F0F8700090009820F470200090009872
:1052D00066F38F100090009820F03800083000909E
:1052E000009820F0070000900098059004208DF8A9
:1052F000180000208DF8190026B9381DC0B28DF8AD
:105300001A0001E08DF81A70AEB900240EE0297879
:105310000DF11B0001556D1C032C05DD005D3038BF
:10532000C1B20DF11B000155601CC4B29DF81A00FA
:10533000A042ECDC0AE0002406E029780DF11B0015
:1053400001556D1C601CC4B2BC42F6DB4EB906E0D0
:1053500000222046611CCCB20DF11B010A54082C1E
:10536000F6DB04A800F09CFB09B0F0BD0020084962
:105370000880088007490880074908800749088095
:10538000074908804FF6FF70064908807047000003
:10539000280000202C0000202E00002030000020DB
:1053A00032000020C600002008B5012140F2012093
:1053B00000F012FE0121880400F0EEFD4FF4806041
:1053C000ADF8000003208DF8020018208DF80300CE
:1053D0006946584800F0BBF94FF40060ADF8000092
:1053E00004208DF803006946524800F0B0F92020EF
:1053F000ADF8000000208DF8030069464E4800F02B
:10540000A6F90121080300F0E7FD2020ADF8000017
:1054100003208DF8020018208DF8030069464748E4
:1054200000F095F98020ADF8000018208DF80300F9
:105430006946424800F08BF94020ADF80000182082
:105440008DF8030069463D4800F081F92020ADF851
:10545000000010208DF803006946364800F077F907
:105460002021344800F055FA4020ADF8000010200B
:105470008DF8030069462F4800F069F940212D4856
:1054800000F047FA0420ADF8000010208DF803006A
:1054900069462B4800F05BF94FF48050ADF80000EE
:1054A00010208DF8030003208DF802006946224881
:1054B00000F04DF94FF48060ADF8000010208DF839
:1054C000030003208DF8020069461B4800F03FF9F5
:1054D0004FF40040ADF8000003208DF802001020CA
:1054E0008DF803006946134800F031F94FF400418C
:1054F000104800F00EFA4020ADF8000003208DF8AF
:10550000020010208DF8030069460B4800F01FF9D7
:105510004021094800F0FDF90220ADF80000032009
:105520008DF8020010208DF803006946014800F054
:105530000EF908BD000C01400010014000080140B8
:10554000001401402DE9F0410446E5B2C4F30726FA
:10555000C4F307474FEA14682021104800F0D7F938
:10556000012000F01FF82A463146002001F0ABF977
:1055700020210A4800F0CDF94021084800F0C7F981
:10558000012000F00FF83A464146002001F09BF957
:105590004021024800F0BDF9BDE8F081000C014057
:1055A000704700000349086000BF024909680029EC
:1055B000FBD17047D000002030B5044604254FF4DD
:1055C000302000F0B1F80546042D17D10C480069D1
:1055D00040F002000A49086108464461006940F051
:1055E000400008614FF4302000F09EF80546044862
:1055F000006941F6FD71084001490861284630BD47
:105600000020024004200B49C96801F0010109B1E2
:1056100001200EE00749C96801F0040109B1022028
:1056200007E00449C96801F0100109B1032000E056
:1056300004207047002002400348006940F08000C9
:1056400001490861704700000020024070B504461F
:105650000D460426F00200F067F80646042E11D12C
:105660000948006940F00100074908612580F002FF
:1056700000F05AF806460448006941F6FE710840F9
:1056800001490861304670BD0020024078B50646E9
:105690000C46042500200090E80200F045F805467D
:1056A000042D24D11348006940F00100114908611C
:1056B0003480E80200F038F80546042D10D1B01C03
:1056C0000090200C00990880E80200F02DF80546B3
:1056D0000848006941F6FE7108400649086106E085
:1056E0000448006941F6FE710840024908612846F5
:1056F00078BD00000020024001460020034A1068E7
:1057000000F038000843106070470000002002409D
:1057100002480349486003484860704723016745D1
:1057200000200240AB89EFCD00B502460423FFF70D
:1057300069FF034603E0FFF765FF0346521E012B96
:1057400001D1002AF7D102B90523184600BD2DE981
:10575000F0410246002500260020002300240027F7
:1057600091F803C00CF00F0591F803C00CF0100C79
:10577000BCF1000F03D091F802C04CEA050591F886
:1057800000C0BCF1000F31D0146800202BE04FF0B6
:10579000010C0CFA00F3B1F800C00CEA03069E42BB
:1057A00020D183004FF00F0C0CFA03F7BC4305FA2D
:1057B00003FC4CEA040491F803C0BCF1280F06D1A5
:1057C0004FF0010C0CFA00FCC2F814C00AE091F88A
:1057D00003C0BCF1480F05D14FF0010C0CFA00FCDE
:1057E000C2F810C0401C0828D1D31460B1F800C022
:1057F000BCF1FF0F34DD546800202EE000F1080CEE
:105800004FF0010808FA0CF3B1F800C00CEA0306E7
:105810009E4221D183004FF00F0C0CFA03F7BC43DA
:1058200005FA03FC4CEA040491F803C0BCF1280F0C
:1058300005D100F1080C08FA0CF8C2F8148091F8B0
:1058400003C0BCF1480F07D100F1080C4FF001086C
:1058500008FA0CF8C2F81080401C0828CED3546017
:10586000BDE8F081F0B50A460023002400210025A0
:1058700000F00046B6F1004F02D11D4EF16901E083
:105880001B4E7168C0F3034583B200F44016B6F5B1
:10589000401F08D121F07061154E766826F07066C1
:1058A000134F7E6012E000F48016B6F5801F06D11B
:1058B000032606FA05F4A14341F0706106E0460DA7
:1058C000360103FA06F6B14341F0706122B1460D8C
:1058D000360103FA06F6314300F00046B6F1004FF8
:1058E00002D1034EF16101E0014E7160F0BD000094
:1058F000000001400146886880B2704702460020DF
:1059000093680B400BB1012000E00020704741611B
:10591000704701617047000010B50446052301225D
:1059200021460A48FEF7B8FD01210848FEF715FE9A
:1059300000E005E002210548FEF772FD0028F8D0DE
:1059400000BF0248FEF768FD10BD000000240140C2
:1059500010B5002407E00820FFF7DEFF034921F817
:105960001400601CC4B20A2CF5DB10BD20280020F6
:1059700010B5002414E00C48006830B90820FFF787
:10598000CBFF0A4921F8140005E00F20FFF7C4FF00
:10599000064921F814000520FFF704FE601CC4B27C
:1059A0000A2CE8DB10BD0000BC000020FC1C00201D
:1059B00000BFFEE738B50121082000F00DFB4FF4D1
:1059C0008060ADF8000003208DF8020048208DF8BB
:1059D000030069461048FFF7BAFE4FF40060ADF8C7
:1059E000000003208DF8020048208DF8030069466E
:1059F0000948FFF7ACFE0848FFF77CFF044606485D
:105A0000FFF778FF04460448FFF774FF044604F4E8
:105A100040640248046038BD000C0140BC00002016
:105A200010B5012000F014FC00BF612000F0B8FBAD
:105A30000028FAD045F2555000F02CF8062000F06E
:105A40001DF840F20D3000F01FF800F00FF800F0E4
:105A500001F810BD4CF6CC400149086070470000C9
:105A60000030004010B500F001F810BD4AF6AA2041
:105A7000014908607047000000300040014948605B
:105A80007047000000300040014988607047000006
:105A900000300040014908607047000000300040BD
:105AA00010B5044613480088C82822DA124909882C
:105AB00001EB8101114A02EB810014222146FEF71D
:105AC00083FB0D480088401C0B490880084600886D
:105AD000C82190FBF1F201FB12000749088005483C
:105AE0000088401C03490880012211460448FEF743
:105AF000E7FD10BD32000020300000205C0D0020CA
:105B00000064004070B502469AB90024184B1D8805
:105B10001B885B1C164E3380164B43F825403346DA
:105B20001B88C82493FBF4F504FB1533344623800B
:105B300070BD0021012017E002EA00038BB10C4B7D
:105B40001C881B885B1C0A4D2B800A4B43F82400E1
:105B50002B461B88C82493FBF4F504FB1533044C37
:105B6000238040004B1C99B22029E5DB00BFDFE712
:105B70004E000020A01E002009490A880988491CFF
:105B8000074B1980074941F8220019460988642209
:105B900091FBF2F302FB1311014A118070470000E0
:105BA0004A000020101D002009490A880988491C64
:105BB000074B1980074941F8220019460988C82275
:105BC00091FBF2F302FB1311014A118070470000B0
:105BD00086000020E024002009490A880988491C21
:105BE000074B1980074941F8220019460988C82245
:105BF00091FBF2F302FB1311014A11807047000080
:105C000082000020C021002000BFFEE708B501216E
:105C10001D2000F0E1F98020ADF8000001208DF892
:105C2000020010208DF8030069462048FFF78FFD21
:105C300080211E48FFF76DFE2020ADF800000120F6
:105C40008DF8020010208DF8030069461848FFF710
:105C50007EFD20211648FFF75CFE2020ADF80000F5
:105C600001208DF8020010208DF8030069460F48CE
:105C7000FFF76DFD4FF48050ADF8000001208DF866
:105C8000020010208DF8030069460A48FFF75FFD07
:105C90000220ADF8000001208DF8020004208DF8EC
:105CA000030069460348FFF752FD08BD00080140A4
:105CB00000100140000C014010B504461748008850
:105CC000A8B91748006880B91648006868B94FF449
:105CD00080511548FFF71BFE002014490860FFF7AC
:105CE00037FE00F051F8114908600C4804800F4855
:105CF0000068652806D30D480068B0F5805F01D8BC
:105D0000002010BD0A48008830B90121002000F0B1
:105D1000E7FFC820064908800120F2E7D4000020F0
:105D20005000002064000020000C0140B40000205E
:105D3000D800002070B5064696B100240DE0012081
:105D4000A040304038B10E4A32F814100D4A52F8D3
:105D50002400FFF7DEFD601CC4B2202CEFDB0DE059
:105D6000002509E0064A32F81510064A52F82500C7
:105D7000FFF7CDFD681CC5B2202DF3DB70BD000020
:105D80004C7700088C77000870B5002300221EE0D5
:105D9000002116E0164830F811500646481C36F827
:105DA000100085420BDD304630F811400546481C96
:105DB00035F8100025F81100481C25F81040481C43
:105DC000C1B2C2F10A008842E4DC501CC2B20A2A05
:105DD000DEDB012205E0064830F812000344501CC7
:105DE000C2B2082AF7DB0720B3FBF0F070BD000059
:105DF000202800207047000070B5002100230F22EA
:105E0000C47804B3154C246804F4E064C4F5E06479
:105E1000210AC1F10403CA40447804FA03F18478EA
:105E20001440214309010E4C0678A155047804F072
:105E30001F050124AC4005786D11AD0005F1E0258A
:105E4000C5F8004109E0047804F01F050124AC40C6
:105E5000044D0678761145F8264070BD0CED00E043
:105E600000E400E080E100E0084800880849098873
:105E7000884201D0002070470648008806490988FA
:105E8000884201D00120F6E70020F4E74C00002012
:105E90004E000020480000204A00002008480088EA
:105EA00008490988884201D00020704706480088C8
:105EB00006490988884201D00120F6E70020F4E76E
:105EC0008400002086000020800000208200002046
:105ED00038B5002401213D2000F07EF80121114851
:105EE000FFF7C0FC00BF1AE00F4830F81400ADF80F
:105EF000000001208DF8020010208DF803000B49EE
:105F000051F824006946FFF722FC074A32F81410C2
:105F1000064A52F82400FFF7FAFC601CC4B2202C99
:105F2000E2DB38BD000230008C750008CC7500083B
:105F300010B504460D48008838B902210C48FFF717
:105F4000DDFC0C490870094804800A48007858B9FB
:105F50000948008830B90221002000F0C1FEC820A5
:105F600005490880012010BD0020FCE7D600002074
:105F7000000C0140B8000020DA000020704700004B
:105F800001460020034A506820F440400843506016
:105F9000704700000010024029B1064AD26902434E
:105FA000044BDA6104E0034AD2698243014BDA61AF
:105FB000704700000010024029B1064A12690243EE
:105FC000044B1A6104E0034A12698243014B1A61CF
:105FD000704700000010024029B1064A926902434E
:105FE000044B9A6104E0034A92698243014B9A612F
:105FF000704700000010024029B1064AD2680243EF
:10600000044BDA6004E0034AD2688243014BDA6051
:10601000704700000010024010B500F02FF84FF458
:10602000803000F0EFF800F051F90446012C1FD148
:10603000002000F0DBF8002000F01CF9A00200F0C6
:106040000DF94FF4E0114FF4403000F025F9012034
:1060500000F01CF900BF392000F0A2F80028FAD0A7
:10606000022000F027F900BF00F0B8F80828FBD1A3
:1060700001217C20FFF7B0FF10BD00000F48006831
:1060800040F001000D490860084640680C4908408E
:106090000A494860084600680A49084007490860FC
:1060A0000846006820F4802008600846406820F414
:1060B000FE0048604FF41F008860704700100240E7
:1060C0000000FFF8FFFFF6FE30B50021002200249B
:1060D00000232D4D6D6805F00C0121B1042905D078
:1060E000082923D105E0294D056022E0284D0560EF
:1060F0001FE0254D6D6805F47012234D6D6805F4A1
:106100008034022505EB92421CB9224D55430560AF
:106110000BE01D4D6D6805F400351DB11B4D554359
:10612000056002E01A4D5543056002E0174D056019
:1061300000BF00BF144D6D6805F0F0010909164D50
:106140006B5C0568DD4045600F4D6D6805F4E061EE
:10615000090A114D6B5C4568DD4085600A4D6D682C
:1061600005F46051C90A0C4D6B5C4568DD40C560A3
:10617000054D6D6805F44041890B084D6B5CC568A1
:10618000B5FBF3F5056130BD0010024000127A0046
:106190000024F40000093D00000000201000002051
:1061A00010B501460022002300204A11012A02D125
:1061B000094C236806E0022A02D1074C236A01E059
:1061C000054C636A01F01F02012494401C400CB18D
:1061D000012000E0002010BD00100240024840688D
:1061E00000F00C0070470000001002400146002043
:1061F000034A506820F0F0000843506070470000E8
:10620000001002401149096821F480310F4A1160E1
:106210001146096821F480211160B0F5803F03D058
:10622000B0F5802F0ED106E00849096841F48031AD
:10623000064A116007E00549096841F4A021034AB4
:10624000116000E000BF00BF704700000010024076
:106250000149086070470000800442420146002066
:10626000034A506820F4E060084350607047000023
:106270000010024001460020034A506820F460509C
:1062800040EAC100506070470010024001490866B2
:10629000704700000000424202460020044B58684C
:1062A00020F47C1042EA01031843014B5860704708
:1062B0000010024001460020034A506820F003000D
:1062C00008435060704700000010024038B50020BD
:1062D00000900024002500BF3120FFF761FF054634
:1062E0000098401C00900098B0F5A06F01D0002DE0
:1062F000F2D03120FFF754FF08B1012400E0002460
:10630000204638BD00B585B001210803FFF764FEC3
:106310000020ADF800004FF48270ADF802000020BC
:10632000ADF80400ADF806000120ADF80800400209
:10633000ADF80A002820ADF80C000020ADF80E00E2
:106340000720ADF810006946044800F03FF801212D
:10635000024800F021F805B000BD00000030014007
:1063600010B5044600BF02210A4800F021F80028B9
:10637000F9D02146074800F027F800BF0121054861
:1063800000F016F80028F9D0024800F01AF8C0B260
:1063900010BD00000030014021B1028842F04002EF
:1063A000028004E002884FF6BF731A4002807047F3
:1063B0000246002013890B400BB1012000E00020B1
:1063C00070470146888970478181704710B5002267
:1063D000028802F441520B884C8823438C88234363
:1063E000CC8823430C8923434C8923438C89234342
:1063F000CC8923431A430280838B4FF2FF742340DE
:1064000083830B8A038210BD7047000070B50023A0
:1064100000221EE0002116E0164830F81150064612
:10642000481C36F8100085420BDD304630F811402C
:106430000546481C35F8100025F81100481C25F8C1
:106440001040481CC1B2C2F10A008842E4DC501C72
:10645000C2B20A2ADEDB012205E0064830F812004B
:106460000344501CC2B2082AF7DB0720B3FBF0F04C
:1064700070BD0000FC1C002030B589B005460C46FC
:106480002846FEF77DF806A8FEF725FA00208DF8CD
:106490001E0001208DF81F008DF820008DF82100CE
:1064A00000208DF8220001208DF8230000208DF8B7
:1064B0001A008DF81B0002208DF81C0001208DF8B9
:1064C0001D0001A8FFF700FE4FF47A710398B0FB9E
:1064D000F1F0B0FBF4F19DF81C00C01C9DF81D20EC
:1064E0001044B1FBF0F080B2ADF8180006A92846C0
:1064F000FEF7EFF809B030BD10B500F001F810BD9F
:106500000CB50020019000903348006840F48030C2
:106510003149086000BF3048006800F40030009046
:106520000198401C0190009818B90198B0F5A06F2F
:10653000F1D12948006800F4003010B1012000902A
:1065400001E0002000900098012843D12348006812
:1065500040F01000214908600846006820F0030060
:1065600008600846006840F0020008601A48406869
:10657000194948600846406848600846406840F449
:10658000806048600846406820F47C1048600846F7
:10659000406840F4E01048600846006840F08070B1
:1065A000086000BF0C48006800F000700028F9D0B7
:1065B0000948406820F003000749486008464068E1
:1065C00040F00200486000BF0348406800F00C0043
:1065D0000828F9D10CBD0000001002400020024044
:1065E00070B505466DB9002408E01F4A32F8141052
:1065F0001E4A52F82400FFF78AF9641C202CF4D3B9
:1066000019E020211A48FFF782F9002211461046AE
:1066100000F040F920211648FFF77BF9402114488B
:10662000FFF775F900221146104600F033F94021BA
:106630000F48FFF76EF90F4800880F4908800F4890
:1066400000880F49088000200E4908600E48008825
:106650000E4908800E4800880E49088000200E4927
:1066600008600E49088070BD4C7700088C770008E0
:10667000000C01404E0000204C0000204A00002089
:1066800048000020500000208200002080000020F0
:10669000860000208400002064000020C400002048
:1066A00030B5164800686422B0FBF2F1B1F1807F8A
:1066B00001D301201DE021F07F40401E4FF0E02279
:1066C000506150170F22002807DA13071D0E0C4BDC
:1066D00000F00F04241F1D5503E013071C0E094B87
:1066E0001C5400BF00204FF0E02290610720106191
:1066F000002008B100BFFEE730BD000014000020FC
:1067000018ED00E000E400E04348006820B1424892
:106710000068401E404908604048008850B13F482A
:1067200000884FF6FF71884204D03C480088401E24
:106730003A4908803A48008850B1394800884FF6F5
:10674000FF71884204D036480088401E34490880D2
:106750003448008850B1334800884FF6FF718842B2
:1067600004D030480088401E2E4908802E480088FA
:1067700050B12D4800884FF6FF71884204D02A4856
:106780000088401E284908802848008850B12748C2
:1067900000884FF6FF71884204D024480088401ECC
:1067A000224908802248008850B1214800884FF6CD
:1067B000FF71884204D01E480088401E1C49088092
:1067C0001C48008850B11B4800884FF6FF71884272
:1067D00004D018480088401E1649088016480088D2
:1067E00050B1154800884FF6FF71884204D0124816
:1067F0000088401E104908801048008850B10F489A
:1068000000884FF6FF71884204D00C480088401E73
:106810000A49088070470000D0000020C400002012
:10682000C6000020C8000020CA000020CC000020C4
:10683000D4000020D6000020D8000020DA0000207C
:1068400010B51148006840F001000F490860084683
:1068500040680E4908400C494860084600680C49E9
:106860000840094908600846006820F48020086054
:106870000846406820F4FE0048604FF41F0088601E
:10688000FFF73AFE10BD0000001002400000FFF8C4
:10689000FFFFF6FE2DE9F04706460C46154630464A
:1068A000FFF75EFD07462046FFF75AFD8046284663
:1068B000FFF756FD8146380440EA082040EA090AFD
:1068C0005046BDE8F08770B506460C461546304682
:1068D000FFF746FD2046FFF743FD2846FFF740FD42
:1068E00070BD704710B505E01E48006840F080009C
:1068F0001C4908601B48006800F08060B0F1806FA0
:10690000F2D129E01848008800EB8000174A02EB1A
:10691000800114480838FDF7EEFF13480088401C3A
:106920001149088008460088C82190FBF1F201FB5C
:1069300012000D4908800E480088401E0C4908804E
:106940000846008828B90022012106480838FDF7CA
:10695000B7FE012007494870054800880028D1D1BA
:1069600010BD0000086400402E0000205C0D0020D7
:106970003200002034000020F0B585B018202C49EA
:1069800008600846006800F00307002F4DD000257E
:1069900046E06A46002126480C38FDF724FF2548CA
:1069A0000088C8283ADA9DF80800042836D1224920
:1069B000224A128801EB0211019808609DF80A0032
:1069C0001D491E4A128801EB021188819DF80A6058
:1069D00000240BE00DF10B00015D1748174A1288E7
:1069E00000EB0210001D0155601CC4B2B442F1DB83
:1069F00012480088401C1149088008460088C821B8
:106A000090FBF1F201FB12000C4908800948008854
:106A1000401C084908800A2009490880681CC5B242
:106A2000BD42B6DB01200749087005B0F0BD00008B
:106A30000C6400402C000020DC0000202A00002014
:106A4000C60000203400002000BFFEE700200549FA
:106A500008800549088005490880054908800549DE
:106A600008807047C4000020480000204A00002031
:106A70004C0000204E000020FFF7CEFAFFF710FE7A
:106A8000FDF742FCFEF7CAF8FEF794FF33480068B2
:106A900068B9FFF7BBF84FF480513148FEF739FF72
:106AA00020213048FEF735FFFFF712FA13E0FEF71A
:106AB0007BFC04212C48FEF72AFF04212A48FEF71C
:106AC00028FF02212648FEF724FFFFF71BFC0221C6
:106AD0002348FEF71EFFFEF7A3FFFEF747FCFEF775
:106AE0001DF9FFF7B3FF00F0E9FB35E01B48006834
:106AF00000F0C4FA00F022F900F07AF91B4800888F
:106B000068B91B48008838B91A48008820B90022A3
:106B100004211948FEF7BEFB3220144908801748AB
:106B20000088B8B900BF4FF6FF70144908800B48C1
:106B30000068FFF755FD12480088124908800020C0
:106B40000B4908800548006820B94FF4805104487B
:106B5000FEF7DDFEFEF786FFC8E70000BC00002060
:106B6000000C01400008014000140140C800002052
:106B70002C00002032000020FC7B0008C600002012
:106B80002A0000202800002010B504462148008873
:106B900000283DD135E0204801880088401C1E4A6D
:106BA00010801E4850F821001D49086010460088DA
:106BB000C82190FBF1F201FB120017490880194827
:106BC00000681749096808431649086014480068B6
:106BD0001549086054B91348006800F047FB104895
:106BE000006870B128200B49088010E00D4800684B
:106BF00000F0EAF90A48006818B100200549088049
:106C000005E005480088094909888842C3D100BFCA
:106C100010BD0000C40000204C000020A01E002079
:106C20005C00002050000020540000204E00002096
:106C300000B5FFF719F9002842D0224801880088E2
:106C4000401C204A1080204850F821001F4908604D
:106C500010460088642190FBF1F201FB12001949F3
:106C600008801B4800681B490860194800681749DC
:106C7000096808401649086008460068164909680E
:106C8000084010B9002015490880104800681149D3
:106C9000096808430D490860084600680D490968FD
:106CA00048400A4908600846006828B90948006851
:106CB00007490968884203D004480068FEF722FFAC
:106CC00000BD000048000020101D002058000020DA
:106CD000500000205C00002054000020C400002070
:106CE0007CB504460D46E0B28DF80000200A8DF810
:106CF0000100200C8DF80200200E8DF803008DF8A5
:106D00000450042205216846FEF7C4FA7CBD7CB518
:106D100004460D46E0B28DF80000200A8DF801000F
:106D2000200C8DF80200200E8DF803008DF8045021
:106D3000032205216846FEF7ADFA7CBD70B52748F1
:106D4000058827482749098800EB011442E02648B6
:106D5000006820B94FF480512448FEF7DAFD20483E
:106D60002049098800EB01100068C0F3C16018B128
:106D70002046FEF715F816E019481A49098800EB75
:106D800001100088C0F38910012802D0022808D120
:106D900003E00120FDF780FE04E00220FDF77CFE09
:106DA00000E000BF00BF72B60C480088401E0B49CF
:106DB00008800C480088401C0A4908800846008862
:106DC000C82190FBF1F201FB12000649088003483C
:106DD000058862B6002DBAD170BD00002C000020DD
:106DE000DC00002028000020BC000020000C014036
:106DF00010B513480068A8B90520FEF75DFF18B963
:106E00000520FFF795F800B110BDFFF711FF0C4802
:106E10000068FFF7B9FE00F023F80948006800F0A9
:106E200011F80BE0FFF704FF05480068FFF7ACFE20
:106E300000F016F80248006800F004F800BFE3E72D
:106E4000BC00002010B504460448006810B900F0EA
:106E500087F901E000F034F810BD0000BC0000200C
:106E600000B5FFF71BF808B3114801880088401CE3
:106E70000F4A10800F4850F821000F490860104653
:106E80000088C82190FBF1F201FB1200084908803C
:106E90000A48006808490968884204D00648006822
:106EA000FEF782FE02E000200449086000BD0000F9
:106EB00080000020C0210020680000206400002025
:106EC00010B5394800883949098888426AD00221BA
:106ED0003748FEF71CFD0220FEF764FB32480188AC
:106EE0000088401C304A1080324850F82100324956
:106EF000086010460088C82190FBF1F201FB1200E7
:106F0000294908802D4800682B49096808432B4906
:106F10000860084600682849096808402749086051
:106F200008460068A0B308460068FEF70BFB052082
:106F3000FEF738FBFEF71CFDFFF768FA20490860F2
:106F400008460068642804D208211E48006800F042
:106F5000CDF91B48006865280AD31948006840F637
:106F6000C411884204D801211648006800F0BEF917
:106F70001348006840F6C411884209D310480068DD
:106F8000B0F5805F04D804210E48006800F0AEF927
:106F90000020FEF7D7FA0220FEF704FB0221044886
:106FA000FEF7B7FC10BD0000840000208600002022
:106FB000000C0140E0240020680000206400002054
:106FC0007C0000206000002010B5044623490C70AE
:106FD000200A23490870200C22490870200E2249FB
:106FE000087020212148FEF792FC0120FEF7DAFA12
:106FF0001A4802781A4801780020FFF74BFC1C4918
:10700000086020211948FEF784FC40211748FEF74C
:107010007EFC0120FEF7C6FA124802781248017879
:107020000020FFF737FC1349086040210F48FEF7A6
:1070300070FC0F4800680F49098800EB01400E49B9
:1070400008600846006838B111210B48006800F05C
:107050004DF900200849086010BD000078000020AC
:10706000790000207A0000207B000020000C014005
:1070700070000020740000206C00002010B5044651
:107080003148007838B101203049088072B60020BC
:107090002D49087062B62D48008878B94FF6FF7008
:1070A0002A49088024B920212948FEF732FC19E03A
:1070B0004FF400412748FEF72CFC13E023480088DA
:1070C00080B1224800884FF6FF7188420AD024B967
:1070D00020211F48FEF71BFC04E04FF400411D482F
:1070E000FEF715FC1848407838B101201A4908808D
:1070F00072B600201449487062B61748008870B90B
:107100004FF6FF701449088024B980211348FEF718
:1071100000FC17E040210E48FEF7FBFB12E00E4892
:10712000008878B10C4800884FF6FF71884209D07A
:1071300024B980210948FEF7EAFB03E04021044816
:10714000FEF7E5FB10BD000034000020CA0000205F
:1071500000100140000C0140CC000020000801405C
:1071600010B53A4800883A49098888426CD04FF4F3
:1071700080513848FEF7CBFB0220FEF713FA334864
:1071800001880088401C314A1080334850F82100A3
:107190003249086010460088C82190FBF1F201FBDB
:1071A00012002A4908802E4800682C4909680843C3
:1071B0002B490860084600682849096808402849A2
:1071C000086008460068A0B308460068FEF7B2FDF4
:1071D0000520FEF7E7F9FEF7CBFBFFF717F921498A
:1071E000086008460068642804D208211E48006828
:1071F00000F07CF81B48006865280AD3194800682D
:1072000040F6C411884204D801211748006800F0F4
:107210006DF81448006840F6C411884209D311483B
:107220000068B0F5805F04D804210F48006800F0C2
:107230005DF80020FEF77EFD0220FEF7B3F94FF463
:1072400080510448FEF765FB10BD0000840000205B
:1072500086000020000C0140E0240020680000208F
:10726000640000207C000020600000202DE9F04137
:10727000054600240026002700BF16E00120A0409C
:10728000284040B10B4A32F814100B4A52F824003F
:10729000FEF73FFB08E0074A32F81410064A52F89E
:1072A0002400FEF734FB00BF641C202CE6D3BDE8AD
:1072B000F08100004C7700088C77000810B500249E
:1072C0000CE00848008848B9002204210648FDF770
:1072D000E1FF322003490880601CC4B2032CF0DBBC
:1072E00010BD0000C8000020FC7B000870B50446FB
:1072F0000D4629462046FFF70AFD00200149086097
:1073000070BD00007C00002030B503460020002145
:10731000002200BF16E0012494401C4084B10021EB
:107320000CE00A4C54F82140094D55F82250AC426B
:1073300002D101248C4020434C1CE1B22029F0DB17
:10734000541CE2B2202AE6DB30BD0000CC760008F7
:107350004C7600082DE9F04780460C469146002601
:10736000B9F800700025C24623E0202C01D9202066
:1073700000E0204685B22A465146104800F094F8B5
:10738000AA4400260CE00D48805D80EA2720C0B2A8
:107390000B4931F8100080EA072087B2701C86B2D2
:1073A000AE42F0DBA54201D0203C02E03846BDE809
:1073B000F087002CD9D10020F9E700000028002038
:1073C000FC79000870B50446002504F5806120466C
:1073D00000F0D0F8284670BD30B502460B460021BB
:1073E000002000BF15E00D4C54F831400C4DAC426C
:1073F00001D100200FE0094C54F83140944206D1ED
:10740000064C04EBC10464681C60012003E04C1CC2
:10741000E1B21F29E7DB00BF30BD0000047900089E
:107420001F0A100030B502460B460021002000BFA5
:1074300015E00D4C54F831400C4DAC4201D1002008
:107440000FE0094C54F83140944206D1064C04EB4D
:10745000C10464681C60012003E04C1CE1B21F29D8
:10746000E7DB00BF30BD00000C7800081F0A1000E9
:10747000F0B504460D4616460027324629462046FA
:1074800000F012F807463846F0BD2DE9F0410446F9
:107490000D461646002732462946204600F012F8CF
:1074A00007463846BDE8F08110B503460C4600217A
:1074B00000BF03E0605C5854481C81B29142F9DB84
:1074C000012010BD2DE9F0470746884614460025E7
:1074D000C146AA4626462046E11704EB9171891061
:1074E000A4EB81011FFA81FAA6EB0A0086B200BF65
:1074F00007E009EB05003968FEF7C8F83F1D281DB5
:1075000085B2B542F5DBBAF1000F0DD00AE03A883A
:1075100091B209EB0500FEF799F8BF1C681C85B213
:10752000681C85B2A542F2DB0120BDE8F0870000AF
:1075300001460D4A08681040B0F1005F12D10120E9
:1075400080F3138800BF00BF0848006800F4E060C3
:10755000074A1043001D054A1060BFF34F8F00BF5C
:1075600000BFFEE7704700000000FE2F0CED00E0BA
:107570000000FA0570B504460D4604E02046FEF70B
:107580001BF804F58064AC42F8D970BD002000807F
:10759000800000020002008000080400100040008B
:1075A000000100200080020008000100040001002A
:1075B00080000002004000100800200000010004CC
:1075C000000400404000000102000400000C0140E3
:1075D000000C014000100140001001400008014073
:1075E000000801400010014000140140000C01405F
:1075F000000C0140000C014000100140001001404F
:107600000010014000100140001001400010014036
:1076100000080140000C0140000C01400010014036
:1076200000100140000C0140000C01400008014026
:107630000008014000100140000C01400010014012
:107640000010014000080140000801401600000041
:1076500015000000140000001300000012000000DC
:1076600011000000100000000F0000000E000000DC
:107670000D0000001B0000001C0000001A000000AC
:1076800019000000180000001700000007000000AB
:1076900008000000050000000600000003000000D4
:1076A0000400000001000000020000000B000000C8
:1076B0000C0000000A000000090000001D0000008E
:1076C0001E0000001F000000200000001800000045
:1076D000130000001A00000015000000190000004F
:1076E000170000001D0000001E0000000B0000003D
:1076F0000C000000100000000F000000120000004D
:10770000140000001600000011000000020000003C
:1077100020000000010000001F0000000600000023
:107720001C000000040000001B0000000A00000014
:107730000500000008000000030000000900000030
:107740000E000000070000000D0000002000800077
:10775000000400400001080040000001000100207A
:107760000100080001000002001004000080040075
:1077700000200200008000400002000440000002DF
:10778000040080001000020000080080000C01408E
:10779000000C0140000801400010014000080140B9
:1077A000000C01400010014000100140000C01409D
:1077B000001001400010014000100140000801408D
:1077C000000C01400010014000100140000C01407D
:1077D00000080140000C0140000801400008014081
:1077E000000C01400010014000100140000C01405D
:1077F000000801400014014000100140000C01404D
:10780000001001400010014000100140010A10006A
:10781000001801081F0A100000000000000000000E
:107820000000000000000000000000000000000058
:107830000000000000000000000000000000000048
:107840000000000000000000000000000000000038
:107850000000000000000000000000000000000028
:107860000000000000000000000000000000000018
:107870000000000000000000000000000000000008
:1078800000000000000000000000000000000000F8
:1078900000000000000000000000000000000000E8
:1078A00000000000000000000000000000000000D8
:1078B00000000000000000000000000000000000C8
:1078C00000000000000000000000000000000000B8
:1078D00000000000000000000000000000000000A8
:1078E0000000000000000000000000000000000098
:1078F0000000000000000000000000000000000088
:1079000000000000010A100000D700001F0A10004C
:107910000000000000000000000000000000000067
:107920000000000000000000000000000000000057
:107930000000000000000000000000000000000047
:107940000000000000000000000000000000000037
:107950000000000000000000000000000000000027
:107960000000000000000000000000000000000017
:107970000000000000000000000000000000000007
:1079800000000000000000000000000000000000F7
:1079900000000000000000000000000000000000E7
:1079A00000000000000000000000000000000000D7
:1079B00000000000000000000000000000000000C7
:1079C00000000000000000000000000000000000B7
:1079D00000000000000000000000000000000000A7
:1079E0000000000000000000000000000000000097
:1079F0000000000000000000000000000000211056
:107A0000422063308440A550C660E7700881299108
:107A10004AA16BB18CC1ADD1CEE1EFF131121002B0
:107A200073325222B5529442F772D6623993188358
:107A30007BB35AA3BDD39CC3FFF3DEE3622443347C
:107A400020040114E664C774A44485546AA54BB5A8
:107A500028850995EEE5CFF5ACC58DD55336722650
:107A600011163006D776F6669556B4465BB77AA7F8
:107A700019973887DFF7FEE79DD7BCC7C448E5589C
:107A80008668A7784008611802282338CCC9EDD948
:107A90008EE9AFF9488969990AA92BB9F55AD44AF0
:107AA000B77A966A711A500A333A122AFDDBDCCB98
:107AB000BFFB9EEB799B588B3BBB1AABA66C877CBC
:107AC000E44CC55C222C033C600C411CAEED8FFDE8
:107AD000ECCDCDDD2AAD0BBD688D499D977EB66E90
:107AE000D55EF44E133E322E511E700E9FFFBEEF38
:107AF000DDDFFCCF1BBF3AAF599F788F8891A981FA
:107B0000CAB1EBA10CD12DC14EF16FE18010A100E3
:107B1000C230E3200450254046706760B9839893D3
:107B2000FBA3DAB33DC31CD37FE35EF3B102901233
:107B3000F322D2323542145277625672EAB5CBA59F
:107B4000A89589856EF54FE52CD50DC5E234C32483
:107B5000A01481046674476424540544DBA7FAB773
:107B60009987B8975FE77EF71DC73CD7D326F236D3
:107B70009106B01657667676154634564CD96DC9BF
:107B80000EF92FE9C899E9898AB9ABA94458654823
:107B900006782768C018E1088238A3287DCB5CDB13
:107BA0003FEB1EFBF98BD89BBBAB9ABB754A545A73
:107BB000376A167AF10AD01AB32A923A2EFD0FEDDF
:107BC0006CDD4DCDAABD8BADE89DC98D267C076CC3
:107BD000645C454CA23C832CE01CC10C1FEF3EFFB3
:107BE0005DCF7CDF9BAFBABFD98FF89F176E367E13
:107BF000554E745E932EB23ED10EF01E454D564446
:107C00003032364F247C000800000020DC000000E9
:107C100028410008007D0008DC000020BC33000083
:107C200044410008000000000102030401020304B3
:107C3000060708090204060800A24A040000000022
:107C4000000000000102030406070809000000000C
:107C5000000000000000000000000000003162533E
:107C6000C4F5A697B988DBEA7D4C1F2E0000000002
:107C70000000000000000000000000000000000004
:107C800000000000000000000000000000000000F4
:107C900000000000000000000000000000000000E4
:107CA00000000000000000000000000000000000D4
:107CB00000000000000000000000000000000000C4
:107CC00000000000000000000000000000000000B4
:107CD00000000000000000000000000001000000A3
:107CE00000000000FFFF0000000000000000000096
:107CF000000000000000000000000000C8000000BC
:04000005080040EDC2
:00000001FF
